{
  "_format": "hh-sol-artifact-1",
  "contractName": "Election",
  "sourceName": "contracts/Election.sol",
  "abi": [
    {
      "inputs": [
        {
          "internalType": "address",
          "name": "authority",
          "type": "address"
        },
        {
          "internalType": "string",
          "name": "name",
          "type": "string"
        },
        {
          "internalType": "string",
          "name": "description",
          "type": "string"
        }
      ],
      "stateMutability": "nonpayable",
      "type": "constructor"
    },
    {
      "inputs": [],
      "name": "Election_CandidateAlreadyExists",
      "type": "error"
    },
    {
      "inputs": [],
      "name": "Election_NottheElectionAuthority",
      "type": "error"
    },
    {
      "inputs": [
        {
          "internalType": "string",
          "name": "candidate_name",
          "type": "string"
        },
        {
          "internalType": "string",
          "name": "candidate_description",
          "type": "string"
        },
        {
          "internalType": "string",
          "name": "imgHash",
          "type": "string"
        },
        {
          "internalType": "string",
          "name": "voterId",
          "type": "string"
        }
      ],
      "name": "addCandidate",
      "outputs": [],
      "stateMutability": "nonpayable",
      "type": "function"
    },
    {
      "inputs": [
        {
          "internalType": "uint8",
          "name": "",
          "type": "uint8"
        }
      ],
      "name": "candidates",
      "outputs": [
        {
          "internalType": "string",
          "name": "candidate_name",
          "type": "string"
        },
        {
          "internalType": "string",
          "name": "candidate_description",
          "type": "string"
        },
        {
          "internalType": "string",
          "name": "imgHash",
          "type": "string"
        },
        {
          "internalType": "uint8",
          "name": "voteCount",
          "type": "uint8"
        },
        {
          "internalType": "string",
          "name": "voterId",
          "type": "string"
        }
      ],
      "stateMutability": "view",
      "type": "function"
    },
    {
      "inputs": [],
      "name": "endElection",
      "outputs": [],
      "stateMutability": "nonpayable",
      "type": "function"
    },
    {
      "inputs": [
        {
          "internalType": "uint8",
          "name": "candidateID",
          "type": "uint8"
        }
      ],
      "name": "getCandidate",
      "outputs": [
        {
          "internalType": "string",
          "name": "",
          "type": "string"
        },
        {
          "internalType": "string",
          "name": "",
          "type": "string"
        },
        {
          "internalType": "string",
          "name": "",
          "type": "string"
        },
        {
          "internalType": "uint8",
          "name": "",
          "type": "uint8"
        },
        {
          "internalType": "string",
          "name": "",
          "type": "string"
        }
      ],
      "stateMutability": "view",
      "type": "function"
    },
    {
      "inputs": [],
      "name": "getElectionDetails",
      "outputs": [
        {
          "internalType": "string",
          "name": "",
          "type": "string"
        },
        {
          "internalType": "string",
          "name": "",
          "type": "string"
        }
      ],
      "stateMutability": "view",
      "type": "function"
    },
    {
      "inputs": [],
      "name": "getNumOfCandidates",
      "outputs": [
        {
          "internalType": "uint8",
          "name": "",
          "type": "uint8"
        }
      ],
      "stateMutability": "view",
      "type": "function"
    },
    {
      "inputs": [],
      "name": "getNumOfVoters",
      "outputs": [
        {
          "internalType": "uint8",
          "name": "",
          "type": "uint8"
        }
      ],
      "stateMutability": "view",
      "type": "function"
    },
    {
      "inputs": [],
      "name": "getWinners",
      "outputs": [
        {
          "internalType": "uint8[]",
          "name": "",
          "type": "uint8[]"
        }
      ],
      "stateMutability": "view",
      "type": "function"
    },
    {
      "inputs": [
        {
          "internalType": "uint8",
          "name": "candidateID",
          "type": "uint8"
        },
        {
          "internalType": "address",
          "name": "voterAddress",
          "type": "address"
        }
      ],
      "name": "vote",
      "outputs": [],
      "stateMutability": "nonpayable",
      "type": "function"
    }
  ],
  "bytecode": "0x60806040523480156200001157600080fd5b5060405162001e8338038062001e83833981810160405281019062000037919062000212565b826000806101000a81548173ffffffffffffffffffffffffffffffffffffffff021916908373ffffffffffffffffffffffffffffffffffffffff16021790555081600190805190602001906200008f929190620000cd565b508060029080519060200190620000a8929190620000cd565b506001600360006101000a81548160ff0219169083151502179055505050506200047e565b828054620000db9062000375565b90600052602060002090601f016020900481019282620000ff57600085556200014b565b82601f106200011a57805160ff19168380011785556200014b565b828001600101855582156200014b579182015b828111156200014a5782518255916020019190600101906200012d565b5b5090506200015a91906200015e565b5090565b5b80821115620001795760008160009055506001016200015f565b5090565b6000620001946200018e84620002d5565b620002ac565b905082815260208101848484011115620001b357620001b262000444565b5b620001c08482856200033f565b509392505050565b600081519050620001d98162000464565b92915050565b600082601f830112620001f757620001f66200043f565b5b8151620002098482602086016200017d565b91505092915050565b6000806000606084860312156200022e576200022d6200044e565b5b60006200023e86828701620001c8565b935050602084015167ffffffffffffffff81111562000262576200026162000449565b5b6200027086828701620001df565b925050604084015167ffffffffffffffff81111562000294576200029362000449565b5b620002a286828701620001df565b9150509250925092565b6000620002b8620002cb565b9050620002c68282620003ab565b919050565b6000604051905090565b600067ffffffffffffffff821115620002f357620002f262000410565b5b620002fe8262000453565b9050602081019050919050565b600062000318826200031f565b9050919050565b600073ffffffffffffffffffffffffffffffffffffffff82169050919050565b60005b838110156200035f57808201518184015260208101905062000342565b838111156200036f576000848401525b50505050565b600060028204905060018216806200038e57607f821691505b60208210811415620003a557620003a4620003e1565b5b50919050565b620003b68262000453565b810181811067ffffffffffffffff82111715620003d857620003d762000410565b5b80604052505050565b7f4e487b7100000000000000000000000000000000000000000000000000000000600052602260045260246000fd5b7f4e487b7100000000000000000000000000000000000000000000000000000000600052604160045260246000fd5b600080fd5b600080fd5b600080fd5b600080fd5b6000601f19601f8301169050919050565b6200046f816200030b565b81146200047b57600080fd5b50565b6119f5806200048e6000396000f3fe608060405234801561001057600080fd5b50600436106100935760003560e01c8063b81c645311610066578063b81c645314610110578063cde9370f1461012c578063df15c37e14610160578063e8685ba11461017e578063ed836bc31461019c57610093565b806342b03cc91461009857806359f78468146100b457806365fc783c146100be5780636d6277f4146100dc575b600080fd5b6100b260048036038101906100ad919061122d565b6101bb565b005b6100bc610482565b005b6100c6610573565b6040516100d3919061166a565b60405180910390f35b6100f660048036038101906100f19190611304565b61058a565b6040516101079594939291906115bb565b60405180910390f35b61012a60048036038101906101259190611331565b6107ed565b005b61014660048036038101906101419190611304565b6109f8565b6040516101579594939291906115bb565b60405180910390f35b610168610cde565b6040516101759190611562565b60405180910390f35b610186610fb2565b604051610193919061166a565b60405180910390f35b6101a4610fc9565b6040516101b2929190611584565b60405180910390f35b60008054906101000a900473ffffffffffffffffffffffffffffffffffffffff1673ffffffffffffffffffffffffffffffffffffffff163373ffffffffffffffffffffffffffffffffffffffff1614610240576040517fe60de15100000000000000000000000000000000000000000000000000000000815260040160405180910390fd5b600360009054906101000a900460ff1661028f576040517f08c379a00000000000000000000000000000000000000000000000000000000081526004016102869061162a565b60405180910390fd5b60005b600660009054906101000a900460ff1660ff168160ff16101561036357816040516020016102c09190611534565b60405160208183030381529060405280519060200120600460008360ff1660ff168152602001908152602001600020600401604051602001610302919061154b565b604051602081830303815290604052805190602001201415610350576040517f2bc4df1300000000000000000000000000000000000000000000000000000000815260040160405180910390fd5b808061035b90611834565b915050610292565b5060006006600081819054906101000a900460ff168092919061038590611834565b91906101000a81548160ff021916908360ff16021790555090506040518060a00160405280868152602001858152602001848152602001600060ff16815260200183815250600460008360ff1660ff16815260200190815260200160002060008201518160000190805190602001906103ff9291906110f0565b50602082015181600101908051906020019061041c9291906110f0565b5060408201518160020190805190602001906104399291906110f0565b5060608201518160030160006101000a81548160ff021916908360ff16021790555060808201518160040190805190602001906104779291906110f0565b509050505050505050565b60008054906101000a900473ffffffffffffffffffffffffffffffffffffffff1673ffffffffffffffffffffffffffffffffffffffff163373ffffffffffffffffffffffffffffffffffffffff1614610507576040517fe60de15100000000000000000000000000000000000000000000000000000000815260040160405180910390fd5b600360009054906101000a900460ff16610556576040517f08c379a000000000000000000000000000000000000000000000000000000000815260040161054d9061162a565b60405180910390fd5b6000600360006101000a81548160ff021916908315150217905550565b6000600660019054906101000a900460ff16905090565b60046020528060005260406000206000915090508060000180546105ad906117d1565b80601f01602080910402602001604051908101604052809291908181526020018280546105d9906117d1565b80156106265780601f106105fb57610100808354040283529160200191610626565b820191906000526020600020905b81548152906001019060200180831161060957829003601f168201915b50505050509080600101805461063b906117d1565b80601f0160208091040260200160405190810160405280929190818152602001828054610667906117d1565b80156106b45780601f10610689576101008083540402835291602001916106b4565b820191906000526020600020905b81548152906001019060200180831161069757829003601f168201915b5050505050908060020180546106c9906117d1565b80601f01602080910402602001604051908101604052809291908181526020018280546106f5906117d1565b80156107425780601f1061071757610100808354040283529160200191610742565b820191906000526020600020905b81548152906001019060200180831161072557829003601f168201915b5050505050908060030160009054906101000a900460ff169080600401805461076a906117d1565b80601f0160208091040260200160405190810160405280929190818152602001828054610796906117d1565b80156107e35780601f106107b8576101008083540402835291602001916107e3565b820191906000526020600020905b8154815290600101906020018083116107c657829003601f168201915b5050505050905085565b600360009054906101000a900460ff1661083c576040517f08c379a00000000000000000000000000000000000000000000000000000000081526004016108339061162a565b60405180910390fd5b600560008273ffffffffffffffffffffffffffffffffffffffff1673ffffffffffffffffffffffffffffffffffffffff16815260200190815260200160002060000160019054906101000a900460ff16156108cc576040517f08c379a00000000000000000000000000000000000000000000000000000000081526004016108c39061164a565b60405180910390fd5b60405180604001604052808360ff16815260200160011515815250600560008373ffffffffffffffffffffffffffffffffffffffff1673ffffffffffffffffffffffffffffffffffffffff16815260200190815260200160002060008201518160000160006101000a81548160ff021916908360ff16021790555060208201518160000160016101000a81548160ff0219169083151502179055509050506006600181819054906101000a900460ff168092919061098990611834565b91906101000a81548160ff021916908360ff16021790555050600460008360ff1660ff168152602001908152602001600020600301600081819054906101000a900460ff16809291906109db90611834565b91906101000a81548160ff021916908360ff160217905550505050565b606080606060006060600460008760ff1660ff168152602001908152602001600020600001600460008860ff1660ff168152602001908152602001600020600101600460008960ff1660ff168152602001908152602001600020600201600460008a60ff1660ff16815260200190815260200160002060030160009054906101000a900460ff16600460008b60ff1660ff168152602001908152602001600020600401848054610aa7906117d1565b80601f0160208091040260200160405190810160405280929190818152602001828054610ad3906117d1565b8015610b205780601f10610af557610100808354040283529160200191610b20565b820191906000526020600020905b815481529060010190602001808311610b0357829003601f168201915b50505050509450838054610b33906117d1565b80601f0160208091040260200160405190810160405280929190818152602001828054610b5f906117d1565b8015610bac5780601f10610b8157610100808354040283529160200191610bac565b820191906000526020600020905b815481529060010190602001808311610b8f57829003601f168201915b50505050509350828054610bbf906117d1565b80601f0160208091040260200160405190810160405280929190818152602001828054610beb906117d1565b8015610c385780601f10610c0d57610100808354040283529160200191610c38565b820191906000526020600020905b815481529060010190602001808311610c1b57829003601f168201915b50505050509250808054610c4b906117d1565b80601f0160208091040260200160405190810160405280929190818152602001828054610c77906117d1565b8015610cc45780601f10610c9957610100808354040283529160200191610cc4565b820191906000526020600020905b815481529060010190602001808311610ca757829003601f168201915b505050505090509450945094509450945091939590929450565b60606000805b600660009054906101000a900460ff1660ff168160ff161015610d7857600460008260ff1660ff16815260200190815260200160002060030160009054906101000a900460ff1660ff168260ff161015610d6557600460008260ff1660ff16815260200190815260200160002060030160009054906101000a900460ff1691505b8080610d7090611834565b915050610ce4565b506000805b600660009054906101000a900460ff1660ff168160ff161015610df3578260ff16600460008360ff1660ff16815260200190815260200160002060030160009054906101000a900460ff1660ff161415610de0578180610ddc90611834565b9250505b8080610deb90611834565b915050610d7d565b5060008160ff1667ffffffffffffffff811115610e1357610e126118eb565b5b604051908082528060200260200182016040528015610e415781602001602082028036833780820191505090505b5090506000805b600660009054906101000a900460ff1660ff168160ff161015610ee9578460ff16600460008360ff1660ff16815260200190815260200160002060030160009054906101000a900460ff1660ff161415610ed65780838360ff1681518110610eb357610eb26118bc565b5b602002602001019060ff16908160ff16815250508180610ed290611834565b9250505b8080610ee190611834565b915050610e48565b5060008360ff1667ffffffffffffffff811115610f0957610f086118eb565b5b604051908082528060200260200182016040528015610f375781602001602082028036833780820191505090505b50905060005b8460ff168160ff161015610fa657838160ff1681518110610f6157610f606118bc565b5b6020026020010151828260ff1681518110610f7f57610f7e6118bc565b5b602002602001019060ff16908160ff16815250508080610f9e90611834565b915050610f3d565b50809550505050505090565b6000600660009054906101000a900460ff16905090565b60608060016002818054610fdc906117d1565b80601f0160208091040260200160405190810160405280929190818152602001828054611008906117d1565b80156110555780601f1061102a57610100808354040283529160200191611055565b820191906000526020600020905b81548152906001019060200180831161103857829003601f168201915b50505050509150808054611068906117d1565b80601f0160208091040260200160405190810160405280929190818152602001828054611094906117d1565b80156110e15780601f106110b6576101008083540402835291602001916110e1565b820191906000526020600020905b8154815290600101906020018083116110c457829003601f168201915b50505050509050915091509091565b8280546110fc906117d1565b90600052602060002090601f01602090048101928261111e5760008555611165565b82601f1061113757805160ff1916838001178555611165565b82800160010185558215611165579182015b82811115611164578251825591602001919060010190611149565b5b5090506111729190611176565b5090565b5b8082111561118f576000816000905550600101611177565b5090565b60006111a66111a1846116aa565b611685565b9050828152602081018484840111156111c2576111c161191f565b5b6111cd84828561178f565b509392505050565b6000813590506111e481611991565b92915050565b600082601f8301126111ff576111fe61191a565b5b813561120f848260208601611193565b91505092915050565b600081359050611227816119a8565b92915050565b6000806000806080858703121561124757611246611929565b5b600085013567ffffffffffffffff81111561126557611264611924565b5b611271878288016111ea565b945050602085013567ffffffffffffffff81111561129257611291611924565b5b61129e878288016111ea565b935050604085013567ffffffffffffffff8111156112bf576112be611924565b5b6112cb878288016111ea565b925050606085013567ffffffffffffffff8111156112ec576112eb611924565b5b6112f8878288016111ea565b91505092959194509250565b60006020828403121561131a57611319611929565b5b600061132884828501611218565b91505092915050565b6000806040838503121561134857611347611929565b5b600061135685828601611218565b9250506020611367858286016111d5565b9150509250929050565b600061137d8383611516565b60208301905092915050565b600061139482611700565b61139e8185611723565b93506113a9836116db565b8060005b838110156113da5781516113c18882611371565b97506113cc83611716565b9250506001810190506113ad565b5085935050505092915050565b60006113f28261170b565b6113fc8185611734565b935061140c81856020860161179e565b6114158161192e565b840191505092915050565b600061142b8261170b565b6114358185611745565b935061144581856020860161179e565b80840191505092915050565b6000815461145e816117d1565b6114688186611745565b945060018216600081146114835760018114611494576114c7565b60ff198316865281860193506114c7565b61149d856116eb565b60005b838110156114bf578154818901526001820191506020810190506114a0565b838801955050505b50505092915050565b60006114dd601a83611734565b91506114e88261193f565b602082019050919050565b6000611500601c83611734565b915061150b82611968565b602082019050919050565b61151f81611782565b82525050565b61152e81611782565b82525050565b60006115408284611420565b915081905092915050565b60006115578284611451565b915081905092915050565b6000602082019050818103600083015261157c8184611389565b905092915050565b6000604082019050818103600083015261159e81856113e7565b905081810360208301526115b281846113e7565b90509392505050565b600060a08201905081810360008301526115d581886113e7565b905081810360208301526115e981876113e7565b905081810360408301526115fd81866113e7565b905061160c6060830185611525565b818103608083015261161e81846113e7565b90509695505050505050565b60006020820190508181036000830152611643816114d0565b9050919050565b60006020820190508181036000830152611663816114f3565b9050919050565b600060208201905061167f6000830184611525565b92915050565b600061168f6116a0565b905061169b8282611803565b919050565b6000604051905090565b600067ffffffffffffffff8211156116c5576116c46118eb565b5b6116ce8261192e565b9050602081019050919050565b6000819050602082019050919050565b60008190508160005260206000209050919050565b600081519050919050565b600081519050919050565b6000602082019050919050565b600082825260208201905092915050565b600082825260208201905092915050565b600081905092915050565b600061175b82611762565b9050919050565b600073ffffffffffffffffffffffffffffffffffffffff82169050919050565b600060ff82169050919050565b82818337600083830152505050565b60005b838110156117bc5780820151818401526020810190506117a1565b838111156117cb576000848401525b50505050565b600060028204905060018216806117e957607f821691505b602082108114156117fd576117fc61188d565b5b50919050565b61180c8261192e565b810181811067ffffffffffffffff8211171561182b5761182a6118eb565b5b80604052505050565b600061183f82611782565b915060ff8214156118535761185261185e565b5b600182019050919050565b7f4e487b7100000000000000000000000000000000000000000000000000000000600052601160045260246000fd5b7f4e487b7100000000000000000000000000000000000000000000000000000000600052602260045260246000fd5b7f4e487b7100000000000000000000000000000000000000000000000000000000600052603260045260246000fd5b7f4e487b7100000000000000000000000000000000000000000000000000000000600052604160045260246000fd5b600080fd5b600080fd5b600080fd5b600080fd5b6000601f19601f8301169050919050565b7f4572726f723a20456c656374696f6e2068617320656e6465642e000000000000600082015250565b7f4572726f723a596f752063616e6e6f7420646f75626c6520766f746500000000600082015250565b61199a81611750565b81146119a557600080fd5b50565b6119b181611782565b81146119bc57600080fd5b5056fea2646970667358221220ad731f51c2aeaab248342c438907a2d99b311c51f891a1f3ca57f5983f588b5b64736f6c63430008070033",
  "linkReferences": {},
  "deployedLinkReferences": {}
}